:020000040000fa
:080000000002040000000000f2
:020000040000fa
:04000800fa020000f8
:020000040000fa
:04000c000c030000e1
:020000040000fa
:0400100024030000c5
:020000040000fa
:0400140002030000e3
:020000040000fa
:0400180014030000cd
:020000040000fa
:04001c001c030000c1
:020000040000fa
:040020002c030000ad
:020000040000fa
:04002400c203000013
:020000040000fa
:04002800c20300000f
:020000040000fa
:04002c00c20300000b
:020000040000fa
:04003000c203000007
:020000040000fa
:04003400c203000003
:020000040000fa
:04003800c2030000ff
:020000040000fa
:04003c00c2030000fb
:020000040000fa
:04004000c2030000f7
:020000040000fa
:04004400c2030000f3
:020000040000fa
:04004800340300007d
:020000040000fa
:04004c00c2030000eb
:020000040000fa
:04005000c2030000e7
:020000040000fa
:04005400c2030000e3
:020000040000fa
:04005800c2030000df
:020000040000fa
:04005c00c2030000db
:020000040000fa
:04006000c2030000d7
:020000040000fa
:04006400c2030000d3
:020000040000fa
:04006800c2030000cf
:020000040000fa
:04006c00c2030000cb
:020000040000fa
:04007000c2030000c7
:020000040000fa
:04007400c2030000c3
:020000040000fa
:04007800c2030000bf
:020000040000fa
:04007c00c2030000bb
:020000040000fa
:04008000c2030000b7
:020000040000fa
:04008400c2030000b3
:020000040000fa
:04008800c2030000af
:020000040000fa
:04008c00c2030000ab
:020000040000fa
:04009000c2030000a7
:020000040000fa
:04009400c2030000a3
:020000040000fa
:04009800c20300009f
:020000040000fa
:04009c00c20300009b
:020000040000fa
:0400a000c203000097
:020000040000fa
:0400a400c203000093
:020000040000fa
:0400a800c20300008f
:020000040000fa
:0400ac00c20300008b
:020000040000fa
:0400b000c203000087
:020000040000fa
:0400b40064030000e1
:020000040000fa
:0400b800c20300007f
:020000040000fa
:0400bc00c20300007b
:020000040000fa
:0400c000c203000077
:020000040000fa
:0400c400c203000073
:020000040000fa
:0400c800c20300006f
:020000040000fa
:0400cc00c20300006b
:020000040000fa
:0400d000c203000067
:020000040000fa
:0400d400c203000063
:020000040000fa
:0400d800c20300005f
:020000040000fa
:0400dc00c20300005b
:020000040000fa
:0400e000c203000057
:020000040000fa
:0400e400c203000053
:020000040000fa
:0400e800c20300004f
:020000040000fa
:0400ec00c20300004b
:020000040000fa
:0400f000c203000047
:020000040000fa
:0400f400c203000043
:020000040000fa
:0400f800c20300003f
:020000040000fa
:0400fc00c20300003b
:020000040000fa
:04010000c203000036
:020000040000fa
:04010400c203000032
:020000040000fa
:04010800c20300002e
:020000040000fa
:04010c00c20300002a
:020000040000fa
:04011000c203000026
:020000040000fa
:04011400c203000022
:020000040000fa
:04011800c20300001e
:020000040000fa
:04011c00c20300001a
:020000040000fa
:04012000c203000016
:020000040000fa
:04012400c203000012
:020000040000fa
:04012800c20300000e
:020000040000fa
:04012c00c20300000a
:020000040000fa
:04013000c203000006
:020000040000fa
:04013400c203000002
:020000040000fa
:04013800c2030000fe
:020000040000fa
:04013c00c2030000fa
:020000040000fa
:04014000c2030000f6
:020000040000fa
:04014400c2030000f2
:020000040000fa
:04014800c2030000ee
:020000040000fa
:04014c00c2030000ea
:020000040000fa
:04015000c2030000e6
:020000040000fa
:04015400c2030000e2
:020000040000fa
:04015800c2030000de
:020000040000fa
:04015c00c2030000da
:020000040000fa
:04016000c2030000d6
:020000040000fa
:04016400c2030000d2
:020000040000fa
:04016800c2030000ce
:020000040000fa
:04016c00c2030000ca
:020000040000fa
:04017000c2030000c6
:020000040000fa
:04017400c2030000c2
:020000040000fa
:04017800c2030000be
:020000040000fa
:04017c00c2030000ba
:020000040000fa
:04018000c2030000b6
:020000040000fa
:04018400c2030000b2
:020000040000fa
:04018800c2030000ae
:020000040000fa
:04018c00c2030000aa
:020000040000fa
:04019000c2030000a6
:020000040000fa
:04019400c2030000a2
:020000040000fa
:04019800c20300009e
:020000040000fa
:04019c00c20300009a
:020000040000fa
:0401a000c203000096
:020000040000fa
:0401a400c203000092
:020000040000fa
:0401a800c20300008e
:020000040000fa
:0401ac00c20300008a
:020000040000fa
:0401b000c203000086
:020000040000fa
:0401b400c203000082
:020000040000fa
:0401b800c20300007e
:020000040000fa
:0401bc00c20300007a
:020000040000fa
:0401c000c203000076
:020000040000fa
:0401c400c203000072
:020000040000fa
:0401c800c20300006e
:020000040000fa
:0401cc00c20300006a
:020000040000fa
:0401d000c203000066
:020000040000fa
:0401d400c203000062
:020000040000fa
:0401d800c20300005e
:020000040000fa
:0401dc00c20300005a
:020000040000fa
:0401e000c203000056
:020000040000fa
:0401e400c203000052
:020000040000fa
:0401e800c20300004e
:020000040000fa
:0401ec00c20300004a
:020000040000fa
:0401f000c203000046
:020000040000fa
:0401f400c203000042
:020000040000fa
:0401f800c20300003e
:020000040000fa
:0401fc00c20300003a
:020000040000fa
:04020000c203000035
:020000040000fa
:04020400c203000031
:020000040000fa
:04020800c20300002d
:020000040000fa
:04020c00c203000029
:020000040000fa
:04021000c203000025
:020000040000fa
:04021400c203000021
:020000040000fa
:04021800c20300001d
:020000040000fa
:04021c00c203000019
:020000040000fa
:04022000c203000015
:020000040000fa
:04022400c203000011
:020000040000fa
:04022800c20300000d
:020000040000fa
:04022c00c203000009
:020000040000fa
:04023000c203000005
:020000040000fa
:04023400c203000001
:020000040000fa
:04023800c2030000fd
:020000040000fa
:04023c00c2030000f9
:020000040000fa
:04024000c2030000f5
:020000040000fa
:04024400c2030000f1
:020000040000fa
:04024800c2030000ed
:020000040000fa
:04024c00c2030000e9
:020000040000fa
:04025000c2030000e5
:020000040000fa
:04025400c2030000e1
:020000040000fa
:04025800c2030000dd
:020000040000fa
:04025c00c2030000d9
:020000040000fa
:04026000c2030000d5
:020000040000fa
:04026400c2030000d1
:020000040000fa
:04026800c2030000cd
:020000040000fa
:04026c00c2030000c9
:020000040000fa
:04027000c2030000c5
:020000040000fa
:04027400c2030000c1
:020000040000fa
:04027800c2030000bd
:020000040000fa
:04027c00c2030000b9
:020000040000fa
:04028000c2030000b5
:020000040000fa
:04028400c2030000b1
:020000040000fa
:04028800c2030000ad
:020000040000fa
:04028c00c2030000a9
:020000040000fa
:04029000c2030000a5
:020000040000fa
:04029400c2030000a1
:020000040000fa
:04029800c20300009d
:020000040000fa
:04029c00c203000099
:020000040000fa
:0402a000c203000095
:020000040000fa
:0402a400c203000091
:020000040000fa
:0402a800c20300008d
:020000040000fa
:0402ac00c203000089
:020000040000fa
:0402b000c203000085
:020000040000fa
:0402b400c203000081
:020000040000fa
:0402b800c20300007d
:020000040000fa
:0402bc00c203000079
:020000040000fa
:0402c000c203000075
:020000040000fa
:0402c400c203000071
:020000040000fa
:0402c800c20300006d
:020000040000fa
:0402cc00c203000069
:020000040000fa
:0402d000c203000065
:020000040000fa
:0402d400c203000061
:020000040000fa
:0402d800c20300005d
:020000040000fa
:0402dc00c203000059
:020000040000fa
:0402e000c203000055
:020000040000fa
:0402e400c203000051
:020000040000fa
:0402e800c20300004d
:020000040000fa
:0402ec00c203000049
:020000040000fa
:0402f000c203000045
:020000040000fa
:0402f400c203000041
:020000040000fa
:0402f800c20300003d
:020000040000fa
:0402fc00c203000039
:020000040000fa
:04030000c203000034
:020000040000fa
:04030400c203000030
:020000040000fa
:04030800c20300002c
:020000040000fa
:04030c00c203000028
:020000040000fa
:04031000c203000024
:020000040000fa
:100400000f4021000eff24000e01880000000000b4
:10041000000020000000e000020032000001200087
:100420002002880014000700d80007000000e00048
:1004300003003a00005d21000100200002003700a7
:100440000000200001002000810f70000100320038
:100450000f000700000020000000e0000200320052
:100460000000020000000000d60e020000000000a4
:100470000040da000000fe00200020000000e00044
:1004800002003200100020009001880000000600e9
:10049000a1028800800478000000eb001f003700f4
:1004a000e284440054a0b4009905ba00e2844400f8
:1004b00054a0b4009906ba00e284440054a0b400e9
:1004c0000006eb00476fde00fd07b200ae018800ba
:1004d000636ce10003003a000ad801000000eb0061
:1004e0000e003700606ce10008003a00004deb00a0
:1004f0000a05e800020039003420ec000af0a000f0
:100500008b05e900f9ff3e00040037006168e10057
:10051000010032000086eb000b00070019c7ba008b
:100520000e04e0001905ba0003003a000a00e000da
:10053000dbff3a0000000600fe07b200ae028800b2
:100540008a047800f5ff37000cd0a300e20f4d00bd
:100550001c00390089027800354dba000a05e80010
:10056000020039003420ec000af0a0008b05e900fd
:100570000f003200254dba000a05e80002003900dc
:100580003420ec000af0a0008b05e90008003200de
:100590000c00e0000600320015cdba000a05e800a4
:1005a000020039003420ec000af0a0008b05e900bd
:1005b0008984e80054a0b4000b00e000e2ff3a0098
:1005c000000006009902ba00055d78008b05e9007d
:1005d000f7ff3200c82ade00055d78008b05e900d0
:1005e000f3ff32000c00e000f1ff320019ddba0029
:1005f000eeff37003600f800c028a9000000eb002d
:10060000b00907003600f800b2090700c048a90089
:1006100010002000ab0907003600f800c068a900f0
:1006200020002000a70907003600f800c088a900b4
:1006300030002000a30907003600f800c0a8a90078
:10064000400020009f0907003600f800c608a900f6
:10065000700020009b0907003600f800c488a9003c
:10066000a0002000970907003600f800809fbe0018
:10067000829fbe00849fbe00869fbe000000fa00dd
:1006800030080700408180005181800061004000f7
:10069000e08048004081880051818800600221008c
:1006a00011c0b300014878000108a9000080fa00d9
:1006b0004f03be004f02be004f01be004f00be0000
:1006c0003600f900004006003600f800809fbe00aa
:1006d000829fbe00849fbe00869fbe000000fa007d
:1006e0005120800000022000008060000000e00037
:1006f00016003200512080000000220000806000bf
:100700000000e00002003200140207000ba4a90060
:100710005120800000002100008060000000e00007
:1007200002003200100207000b84a9005120800053
:1007300000802000008060000000e0000200320025
:100740000c0207000b64a9000aa4a9005020800035
:10075000620060000000e000020032000a24a900ec
:10076000070207000468a9000080fa004f03be00da
:100770004f02be004f01be004f00be003600f90020
:10078000004006000040da000000fe000000050006
:1007900003f0a200889fbe008a9fbe008c1f7800d5
:1007a000f8000700ff0033006450e1004f00320002
:1007b0006420e1005200320003826c0007003b001d
:1007c0000905d0000306d000820f54000c065d001e
:1007d0000200390002003200890178000306780027
:1007e0008582550004003d000003fd008103fd00eb
:1007f0008502ea008b854200840f720002003b00f4
:1008000060001000e08018006011b8000005eb00e7
:100810007a28e1000a00390006007800c75ddd0093
:10082000f707b200878075002d00370082817100c4
:100830000a017800610560008180d1000080d3004a
:100840008502e900f9ff3b00060440008784480068
:1008500002003b0060041400e0841c000988a3002f
:10086000070032008a817100828171006101640099
:100870008904d1000884d3008b05e80017003700f5
:100880000978a30013003a000b00e00013003400c5
:100890008b05e9000804440089844c000a44740074
:1008a0000978a3000d003a000b00e00007003400b7
:1008b0008b05e9000804440089844c0001003a00db
:1008c0000b0020000978a300f7ff32000001eb00c5
:1008d00002003700828171000a0178006e00070073
:1008e0000cf0a70001f0a000b70037006420e10081
:1008f00002003a00838f6c00b70033000801be008d
:100900000200be00b0003700889fbe008a9fbe0074
:100910008c1f78009b000700a200330003866c0048
:100920006450e1002e0032006420e1003300320008
:100930006150e1002f0032006120e10031003200ff
:1009400085855500eb07b000090020000804200051
:10095000050037000804440089844c000a00310077
:100960000603430087834b000001530081815b0035
:10097000f8ff33000203be000800a0000804440092
:1009800089844c00f6ff3900c639dd00830173000d
:1009900001003200130020008904d1000884d30034
:1009a0000998a300050032000800a7000300a0007a
:1009b0008904d1000884d3008b05e8008904d100a4
:1009c0000884d3000001eb000281d200320007004e
:1009d00001f0a1000cf0a70001f0a0007a003700a0
:1009e0006420e1007c0032000801be000200be006d
:1009f000f7ff37006120e100770032006000b800a7
:100a0000f3ff37000000200001f82700f0ff370057
:100a100014002000a70037000001be0044000700ba
:100a20000470a70003f0a10003f8a30013003a002c
:100a30006509b10010003200090035006928e100a5
:100a40000200350001002800000005000000400001
:100a5000818048008502e900fcff3a0000000600a2
:100a6000f88f4200050035008100d1000080d300de
:100a70008502e800fcff3a00000006008000eb0061
:100a8000000005004f89de0082017800a4003700d5
:100a90006011b800b200370081002000618055006d
:100aa0000b003d000b00200061fe2f000100e10063
:100ab0001d00340082817100610164008904d1004d
:100ac0000884d3000000e800faff3a00710020001b
:100ad0006100640003007000020060000900320041
:100ae00061044400e0844c000988a5000500320040
:100af0008b05e8006808e10002003a008904d10093
:100b00000884d300f20f20000258e10005003d00e8
:100b1000c75ddd00f907b200898075000800780024
:100b2000000006000bf827008b007800000005008d
:100b3000c70ade00f107b200f50fb200080032006c
:100b4000e1cf4200020032000170a0002400050045
:100b5000810f700001003200040805004400050008
:100b6000810f700002003a00140005008502e900c0
:100b70000000400081c04800fcff3b000170a00065
:100b8000240005000004be00e9ff07000003be00ca
:100b90000405be000200be00e5ff0700844f75009b
:100ba000000006000200be006450e10005003600af
:100bb0006420e100020036000968a30001003a0049
:100bc0000800be000160a0004f0678004f05be007f
:100bd0004f04be0000000600f0ff2f00f1ff2700c9
:100be000f9ff3700889fbe008a9fbe008c1f7800e7
:100bf000e4ff0700ebff330003866c006450e10064
:100c0000240032006420e100270032006150e1003e
:100c1000220032006120e100210032008b85420079
:100c2000eb07b1000134b800003ab80008044200f4
:100c300089844a00013ab8000030b800888040003a
:100c400009014a0004003300000040008180480090
:100c5000020149008b05e900c909dd00830170002c
:100c60000100320013002000c814de004814dd002b
:100c70004709de001200b200c808de0008847000d8
:100c800085ff070001f0a1000cf0a70001f0a00013
:100c9000cdff37006120e100cfff32000801be0028
:100ca0000200be00f7ff37006150e100fcff3a0090
:100cb000c9ff3700889fbe008a9fbe00841f78004e
:100cc000b0ff07004f00780011003300f0ff2f0045
:100cd000838f6c0006003b00040565000a00a70036
:100ce0000800370009f0a6001000200008003700b7
:100cf000820f5400838f5c00030039001000200035
:100d000001003e000000200009f0a7000000ea00fa
:100d10004f05be004f04be000000e00000000600ca
:100d2000881f7800030478000300e00007003d00fe
:100d300060001000e080180060011900e0811900d7
:100d400002003b0001f02d00030037000400070003
:100d500008f0a70001f0a0004f0478000000060092
:100d6000889fbe008a9fbe0000827000040271004e
:100d700004827100260032000004be000200be00a2
:100d80006011b8006b092000950220000182cf009d
:100d90000a0039000541b1000082cf000700390088
:100da0000541b1000982cf00040039000541b100be
:100db0000882cf00010039000541b1000542520010
:100dc000120032000a003b00828171006101640060
:100dd0008100d1000080d3008984d3000884d3002f
:100de0008b05e8000442e800f7ff3a0007003700ef
:100df0000804440089844c000000480081804800b9
:100e00008b05e9000442e900f9ff3a0022ff0700e0
:0c0e10004f05be004f04be0000000600ad
:020000040000fa
:100e1c000200fa00000f78001e007800e10f50006d
:100e2c0009003200e10f500005003900e20f5000bc
:100e3c0007003200e30f50000700320008003700b3
:100e4c0001eba8000600370011eba80004003700e6
:100e5c0021eba8000200370031eba80000000000d5
:100e6c000080fa00000006000400fa00000f780071
:100e7c00110798001e007800e10f50000b003200a3
:100e8c00e10f500005003900e20f50000b0032005a
:100e9c00e30f50000d003200100037009e00900050
:100eac0021588800062bef000c0037009e009000a4
:100ebc00a1588800162bef00080037009e00900008
:100ecc0021598800262bef00040037009e0090006b
:100edc00a1598800362bef00000000000080fa00ba
:100eec00000006000400fa00000f780011079800bb
:100efc001e007800e10f50000a003200e10f500094
:100f0c0005003900e20f500009003200e30f5000d9
:100f1c000a0032000c0037001e0090006058880058
:100f2c00090037001e009000e058880006003700ca
:100f3c001e00900060598800030037001e009000ce
:100f4c00e0598800000000000080fa000000060054
:100f5c000000fa000080fa00000006000000fa0011
:100f6c000080fa00000006000000fa000080fa0081
:100f7c00000006000000fa000080fa0000000600e5
:100f8c000000fa002468a9000c24ef000120800066
:100f9c00f08f2f000080600000a0a00000208800cf
:100fac000000000001208000000e20008080600006
:100fbc0000082000808f5000faff3a00300020001b
:100fcc0080208800801d20009020880010002c00bc
:100fdc003020880010002000a02088000024ef00a2
:100fec000004a800c1208000c0ff2f00008060001a
:100ffc00c02088008121800000fe2f0001007000bd
:10100c0080218800a02180007f006000a021880042
:10101c00c02180007f006000c021880081218000f9
:10102c00c0ff2f000080600080218800a12180007b
:10103c00c0ff2f0000806000a0218800c12180002b
:10104c00c0ff2f0000806000c02188003224ef0018
:10105c003624ef003a24ef003064a9003464a90070
:10106c003864a900002280007f0060000080a0008e
:10107c000022880001228000c0ff2f000080600049
:10108c00002288004224ef004064a9000121800066
:10109c0000ff2f00008060000000a00000218800ed
:1010ac000004a90030e4a80031e4a90032e4a9004e
:1010bc0033e4a90034e4a90035e4a90036e4a9001e
:1010cc0037e4a90081218000c0ff2f000080600060
:1010dc008021880081218000f0cf2f0000806000eb
:1010ec008021880091218000c0ff2f0000806000cb
:1010fc009021880091218000f0cf2f0000806000ab
:10110c0090218800a1218000c0ff2f00008060008a
:10111c00a0218800a1218000f0cf2f00008060006a
:10112c00a0218800b1218000c0ff2f00008060004a
:10113c00b0218800b1218000f0cf2f00008060002a
:10114c00b02188002024ef002224ef002824ef0097
:10115c002a24ef000a24a90001208000f08f2f0020
:10116c00008060000020880000000000012080004a
:10117c00000e2000008060000000e000fbff3a0041
:10118c002468a8000c24a8000ca4a8000080fa0075
:10119c00000006000000fa00214420000000eb00d3
:1011ac0050ff070000202100800078000000eb00b9
:1011bc002dff07000000eb0015ff07000080fa0070
:1011cc00000006000000fa0001442000100020007e
:1011dc0044ff070000202100800078001000200050
:1011ec0021ff07001000200009ff07000080fa0013
:1011fc00000006000a00fa0030079800410798002a
:10120c0000432000000f78000040eb00404798009e
:10121c000000eb0010079800260037001e00780035
:10122c009040780000c8b30000c060000004e000eb
:10123c001c0032001e0078001040780068406000ee
:10124c000004e00017003a00012021001e0090006d
:10125c004400dd0000804000ce009000a301070098
:10126c003e00900000407800e34060001e007800d3
:10127c00e3c0600090417800c2cfb30002c16100ae
:10128c0081407100014878001e0078009040780081
:10129c000134a0000148780010c0b300404798000a
:1012ac00070037001e0fe8001e0090000000e80049
:1012bc00100798001e0090000000e000d7ff3200dd
:1012cc004e4090000080fa00000006000800fa0072
:1012dc00300798000040eb00204798000121800067
:1012ec00210798002e0090000000e000280032003a
:1012fc000000eb00000f78002000370020808000f9
:10130c00ae0090000008de00610060000040780034
:10131c000004e0000e0032002080800000407800c5
:10132c00be0090006f00070020808000110020009c
:10133c000008dd000080ea008000780000218000b9
:10134c00008060000021880010c0b3002047980086
:10135c00208080000000e800208088002080800031
:10136c00ef0f5000010036000430ef002e409000cb
:10137c000004e00005003a001e0fe8001e00780093
:10138c00ef0f5000ddff36000100370000000000b9
:10139c002e4090000080fa00000006000000fa00c9
:1013ac00502080004d00de00614060000080fb009a
:1013bc0000f0a7000000ea000000ea004f00de0089
:1013cc00004078000080fa00000006000000fa00df
:1013dc00502080004b00de00614060000080fb006c
:1013ec0000f0a7000000ea000000ea004f00de0059
:1013fc00004078000080fa00000006000000fa00af
:10140c00502080004c00de00614060000080fb003a
:10141c0000f0a7000000ea000000ea004f00de0028
:10142c00004078000080fa00000006000600fa0078
:10143c000000eb00000f78000121800021079800cc
:10144c002e0090000000e000110032000000eb00c4
:10145c00100798000b0037001e009000ae009000a3
:10146c000008de0061006000004078000004e0002d
:10147c00010032001e0fe8001e0090000000e80082
:10148c00100798001e009000ef0f5000f2ff36007e
:10149c001e007800004078000080fa000000060072
:1014ac000000fa000ac4a9000cc4a80001208000a6
:1014bc00f08f2f00008060000080a00000208800ca
:1014cc000000000001208000000e200080806000e1
:1014dc0000022000808f5000faff3a000080fa00d2
:1014ec00000006000c00fa00004f9800510798000d
:1014fc000000eb00100798000000eb00000f7800d4
:10150c006000b80020079800310798000e48900042
:10151c000080fb00c400dd000020210000804000a2
:10152c001000780061006000100798001e00900009
:10153c000000e00017003a000e4890000080fb000d
:10154c00c400dd00002021000080400090007800e5
:10155c00c0ff2100008060004200de008000eb0034
:10156c005e0190000089be005e00900041c0b30097
:10157c00414098000e4890000080fb00c400dd0044
:10158c00002021000080400010007800620f6000f5
:10159c006b0037000e4890000080fb00c400dd009b
:1015ac000020210000804000100078006101b8008c
:1015bc00c0ff210001002000020278000301780026
:1015cc0080017800010078000302620000006100d5
:1015dc008000eb00c000dd00000020000001be0018
:1015ec006120b80000017100818171002207980010
:1015fc00330798002e009000be009000c000dd0064
:10160c00000020005e0190000089be005e0090008a
:10161c0010027800900290000e4890000080fb00b1
:10162c004400dd008080e8000020210000804000a4
:10163c00100078006101b800f0ff200001002000cc
:10164c000203780003017800800178000100780023
:10165c0003036300000061008000eb00c000dd00ac
:10166c00000020000001be006130b80000017100d4
:10167c00818171004618dd00ca10de008100700007
:10168c004610dd0004004000858048005e0190009b
:10169c000089be005e00900010027800900290005d
:1016ac000e4890000080fb004400dd00e400400088
:1016bc000020210000804000100078004a00de006d
:1016cc006101b800f0ff2f00010020000203780038
:1016dc0003017800800178000100780003036300a7
:1016ec00000061008000eb00c000dd000000200065
:1016fc000001be006130b8000001710081817100f1
:10170c0004004100858049005e0190000089be0004
:10171c005e00900031c0b300414098000e4890002c
:10172c000080fb004400dd00e400400000202100ac
:10173c00008040009000780000202000008f6000a6
:10174c001e0078000000e000040032005e009000f3
:10175c0021c0b30051409800620037005e00900039
:10176c0011c0b300514098000e4890000080fb005f
:10177c004400dd00e6004000002021000080400015
:10178c0010007800804078005e0090007140980056
:10179c000e4890000080fb004400dd00e600400095
:1017ac000020210000804000100078004800de007e
:1017bc00804078005e009000014898000e48900030
:1017cc000080fb004400dd00e80040000020210008
:1017dc000080400010007800804078005e0090008f
:1017ec00114898000e4890000080fb004400dd007a
:1017fc00e80040000020210000804000100078002c
:10180c004800de00804078005e009000214898007f
:10181c000e4890000080fb004400dd00ea00400010
:10182c0000202100008040001000780080407800eb
:10183c005e009000314898000e4890000080fb003c
:10184c004400dd00ea004000002021000080400040
:10185c00100078004800de00804078005e009000a8
:10186c00414898000e4890000080fb004400dd00c9
:10187c00ec004000002021000080400010007800a7
:10188c00804078005e009000514898000e4890000f
:10189c000080fb004400dd00ec0040000020210033
:1018ac0000804000100078004800de008040780086
:1018bc005e009000614898000e4890000080fb008c
:1018cc004400dd00e40040000020210000804000c6
:1018dc001000780000407800ef4060005e0090003f
:1018ec00614098000080fa00000006000400fa0035
:1018fc00000f7800110798001e00900040409000e7
:10190c00e44f500014003a001e009000900090002c
:10191c001000780080007800f07f200000806000cc
:10192c00c200dd001e007800010878001e80e8006f
:10193c008000eb00010878009e0078006480400075
:10194c009e009000e14090008180fb00ef806000e1
:10195c0001087800240037001e00900090009000d1
:10196c00100078004008de0080007800c0ff2100e5
:10197c0000806000800078000100a0001e0078004c
:10198c00010878001e81e8001e0090009000900075
:10199c0010007800ca09dd004600de0000807100ee
:1019ac00c608de0080007800f0ff20000080600098
:1019bc00000978009e007800648140001e009000b1
:1019cc00604090000080fb00ef0160001e00900062
:1019dc009000900010007800000078004a00dd00b4
:1019ec0000804100000978009e017800668041006b
:1019fc009e009000814890008180fb004809dd002a
:101a0c009e009000f14090008180fb00810041001d
:101a1c00010878009e007800688040009e009000cd
:101a2c00a14890008180fb004809dd009e009000d9
:101a3c00914890008180fb008100410001087800f2
:101a4c009e0178006a8041009e009000c148900081
:101a5c008180fb004809dd009e009000b148900099
:101a6c008180fb0081004100010878009e00780015
:101a7c006c8040009e009000e14890008180fb004b
:101a8c004809dd009e009000d14890008180fb0049
:101a9c0081004100010878000080fa000000060077
:101aac000200fa00000f78001e007800e20f5000d0
:101abc0007003200e30f500008003200e10f500025
:101acc000a003a00218ca900218ca80008003700dc
:101adc00418ca900418ca80005003700618ca9003d
:101aec00618ca8000000000001003700000000001d
:101afc000080fa00000006000200fa00000f7800d7
:101b0c001e007800e20f50000d003200e30f500071
:101b1c0014003200e10f50001c003a0010618000ec
:101b2c000080a000e3c1200011322400d2bc2a00a6
:101b3c008209780081097800106188001400370050
:101b4c00106280000080a000e3c12000113224004c
:101b5c00d2bc2a00820978008109780010628800c2
:101b6c000b003700106380000080a000e3c1200050
:101b7c0011322400d2bc2a00820978008109780035
:101b8c001063880000000000010037000000000016
:101b9c000080fa00000006000200fa00000f780036
:101bac001e007800e20f50000e003200e30f5000d0
:101bbc0016003200e10f50001f003a001161800046
:101bcc00f0ef2f0000806000e3c1200011322400f0
:101bdc00d2bc2a0082097800810978001061880043
:101bec001600370011628000f0ef2f0000806000bb
:101bfc00e3c1200011322400d2bc2a0082097800f3
:101c0c0081097800106288000c0037001163800095
:101c1c00f0ef2f0000806000e3c12000113224009f
:101c2c00d2bc2a00820978008109780010638800f0
:101c3c000000000001003700000000000080fa00e6
:101c4c00000006000200fa00000f78001e00780069
:101c5c00e20f50000d003200e30f50001400320070
:101c6c00e10f50001c003a00106180000090a000b1
:101c7c00e3c1200011322400d2bc2a008209780072
:101c8c008109780010618800140037001062800010
:101c9c000090a000e3c1200011322400d2bc2a0025
:101cac008209780081097800106288000b003700e7
:101cbc00106380000090a000e3c1200011322400ca
:101ccc00d2bc2a0082097800810978001063880050
:101cdc000000000001003700000000000080fa0046
:101cec00000006000200fa00000f78001e007800c9
:101cfc00e20f50000e003200e30f500016003200cd
:101d0c00e10f50001f003a0011618000f0df2f003e
:101d1c0000806000e3c1200011322400d2bc2a00f4
:101d2c00820978008109780010618800160037005c
:101d3c0011628000f0df2f0000806000e3c1200002
:101d4c0011322400d2bc2a00820978008109780063
:101d5c00106288000c00370011638000f0df2f0048
:101d6c0000806000e3c1200011322400d2bc2a00a4
:101d7c008209780081097800106388000000000057
:101d8c0001003700000000000080fa00000006008f
:101d9c000000fa002023a9000080fa0000000600d1
:101dac003400fa00889fbe00208ea8006a0307004a
:101dbc00040ea900042ea800180ea800f02f200075
:101dcc00506088001000200035ff07002000200024
:101ddc0033ff07003000200031ff07000000eb004c
:101dec00700798000040eb00004f780000002000c6
:101dfc00a1472400000f9800110f9800000020004c
:101e0c00812c24001007980021079800edfc070096
:101e1c00400220000e0040002cfd070040579800a7
:101e2c004e5090000004e000060032003e68900026
:101e3c000080fb008000eb0012fb070010079800ed
:101e4c0021079800b07080004700de006140600000
:101e5c000080fb00300f9800b07080004800de005e
:101e6c00614060000080fb00400f9800b070800063
:101e7c004900de00614060000080fb00500f9800bc
:101e8c005e089000c200dd004e089000000040008b
:101e9c00810070003e0890000100700070079800ef
:101eac007e009000e30f5000b3003200e30f5000af
:101ebc0005003c00e10f50000a003200e20f500018
:101ecc009e003200bb003700e50f50006b00320063
:101edc00e50f500078003500e60f50008500320009
:101eec00b40037001e4078000004e00054003200bb
:101efc000040eb00004f78002b020700cf80de0083
:101f0c00ddfa0700600f9800710f98002c02070093
:101f1c006e099000fe09900000002400c1592400b5
:101f2c0076fa0700300798004107980018c0b300f4
:101f3c000200200003f823003e009000ce00900029
:101f4c00b0fa07000000e000010035000044eb008f
:101f5c000804e000040032001e019000ae01900065
:101f6c0032079800430798003e019000ce01900084
:101f7c001e009000ae00900060fa070002002000e6
:101f8c0003f82300fff907000017980011179800b9
:101f9c00506080008000eb00bafa07000004be001d
:101fac00506080008000eb00b6fa0700a2702d0094
:101fbc0033c2230008fb07000e1190009e11900005
:101fcc0005fb07000001be000800be00eef907008b
:101fdc008efa070050079800610798005e01900088
:101fec00ee019000f037200001002000800f51001e
:101ffc00818f590005003600f02f200001002000d1
:10200c0050079800610798000b0037005e019000a4
:10201c00ee019000e00f200001002000800f510025
:10202c00818f590004003e00f00f200001002000b9
:10203c0050079800610798005e009000506088007f
:10204c00042ea900180ea80010002000fdfe0700a9
:10205c0010002000a8fe070020002000f9fe070059
:10206c0020002000ccfe0700300020001dff0700e0
:10207c0030002000a0fe070061003700042ea800ed
:10208c00180ea80010002000eefe07001000200023
:10209c00c1fe070020002000eafe070020002000ff
:1020ac0095fe0700300020000eff070030002000d6
:1020bc0091fe070052003700042ea800180ea8004d
:1020cc0010002000dffe070010002000b2fe070009
:1020dc002000200003ff07002000200086fe0700e0
:1020ec0030002000d7fe07003000200082fe0700e1
:1020fc004300370010c0b300004f780024ff0700e6
:10210c00042ea800180ea80010002000cdfe070019
:10211c001000200078fe070020002000f1fe0700d0
:10212c002000200074fe070030002000c5fe0700d0
:10213c003000200098fe070031003700042ea80064
:10214c00180ea80010002000e6fe0700100020006a
:10215c0069fe070020002000bafe070020002000c6
:10216c0065fe070030002000b6fe0700300020009e
:10217c0089fe070022003700042ea800180ea800c4
:10218c0010002000d7fe0700100020005afe0700a8
:10219c0020002000abfe0700200020007efe070080
:1021ac0030002000a7fe07003000200052fe070080
:1021bc00130037000040eb00004f7800f02f200098
:1021cc0050608800042ea800180ea90010002000f2
:1021dc009cfe07001000200047fe07002000200096
:1021ec0098fe07002000200043fe0700300020006e
:1021fc0094fe0700300020003ffe070004ff37006c
:10220c0003ff37000000fa00003a80000080fa005b
:10221c00000006000200fa00faff0700000f780029
:10222c001e007800240007000004e00002003200c9
:10223c0000002800710007001e0078002a0007002b
:10224c000004e00002003200000024006b000700d4
:10225c001e007800320007000004e000020032008b
:10226c0000202000650007001e0078003a000700df
:10227c000004e00002003200000820005f000700ac
:10228c001e007800420007000004e000020032004b
:10229c0000042000590007001e0078004a000700c7
:1022ac000004e0000200320000012000530007008f
:1022bc000080fa00000006000400fa0010079800e5
:1022cc000040eb00004f78001e0090000000e00082
:1022dc0002003d0010c0b300004f78001e40780093
:1022ec000080fa00000006000400fa0010079800b5
:1022fc000040eb00004f78009e009000000024008e
:10230c00008060000000e0000200320010c0b3004a
:10231c00004f78001e4078000080fa000000060094
:10232c000400fa00100798000040eb00004f780002
:10233c009e00900000202000008060000000e00063
:10234c000200320010c0b300004f78001e4078002d
:10235c000080fa00000006000400fa001007980044
:10236c000040eb00004f78009e0090000008200019
:10237c00008060000000e0000200320010c0b300da
:10238c00004f78001e4078000080fa000000060024
:10239c000400fa00100798000040eb00004f780092
:1023ac009e00900000042000008060000000e0000f
:1023bc000200320010c0b300004f78001e407800bd
:1023cc000080fa00000006000400fa0010079800d4
:1023dc000040eb00004f78001e0090007000600081
:1023ec000000e0000200320010c0b300004f780083
:1023fc001e4078000080fa00000006000200fa007f
:10240c00000f78009e80ea00003a80000080600097
:10241c00003a88000080fa00000006000000fa0074
:10242c004027ef000080fa00000006000000fa00d0
:10243c001821ef001c21ef001421ef001a21ef00ee
:10244c0080002000f0088800c00221008040eb00d2
:10245c00014878000080fa00000006000000fa0035
:10246c001140800000002100008060000000e000ae
:10247c0009003200d0022100104078008040e800b2
:10248c00d002210001487800c002210011c0b30025
:10249c00014878000388a9000080fa0000000600bb
:1024ac000400fa00008fbe001e007800d0088800df
:1024bc001e0078009e0090004008de0000007800ae
:1024cc00e00888000080fa00000006000400fa0012
:1024dc000080eb008080eb00008fbe00e0088000e5
:1024ec008000eb00c001dd0002002000d00880005d
:1024fc008000eb00001f7100019771001e00780036
:10250c009e0090000080fa00000006000400fa0013
:10251c00008fbe001e0078009e0090004008de0078
:10252c0000007800b00888001e007800a008880021
:10253c000080fa00000006000800fa000080eb00a2
:10254c008080eb00008fbe00a1088000210798005e
:10255c00b1088000310798003e0090008000eb002d
:10256c00c001dd00020020002e0090008000eb0076
:10257c00001f7100019771001e0078009e009000f2
:10258c000080fa00000006000000fa00c0022100e2
:10259c008040eb00014878001fe1a8000080fa00a1
:1025ac00000006000000fa001fe1a9000080fa00fc
:1025bc00000006000200fa00c0022100104f780053
:1025cc001e4078000004e00003003200c00221002d
:1025dc008040eb00014878001e4078000080fa0033
:1025ec00000006000000fa00d00221001040780024
:1025fc000080fb000080fa00000006000000fa00da
:10260c00d00221008040eb00014878000080fa00e5
:10261c00000006000000fa000a21ef000e21ef0076
:10262c000621ef00e0af2100600888008000280040
:10263c00800888000108a9002108a8006002210078
:10264c008040eb00014878000080fa000000060092
:10265c000400fa00008fbe001e007800600888009d
:10266c001e0078009e0090004008de0000007800fc
:10267c00700888000080fa00000006000400fa00d0
:10268c000080eb008080eb00008fbe0070088000a3
:10269c008000eb00c001dd0002002000600880001b
:1026ac008000eb00001f7100019771001e00780084
:1026bc009e0090000080fa00000006000400fa0062
:1026cc00008fbe001e0078009e0090004008de00c7
:1026dc0000007800400888001e0078003008880050
:1026ec000080fa00000006000800fa000080eb00f1
:1026fc008080eb00008fbe0031088000210798001d
:10270c0041088000310798003e0090008000eb00eb
:10271c00c001dd00020020002e0090008000eb00c4
:10272c00001f7100019771001e0078009e00900040
:10273c000080fa00000006000000fa000080fa0099
:10274c00000006000000fa00600221008040eb004f
:10275c00014878002108a80011e1a8000080fa00c7
:10276c00000006000000fa0011e1a9002108a900f0
:10277c000080fa00000006000200fa00600221004e
:10278c00104f78001e4078000004e0000300320077
:10279c00600221008040eb00014878001e40780068
:1027ac000080fa00000006000000fa004081800062
:1027bc0051818000000078000080fa0000000600c3
:1027cc000000fa006000b800408188005181880048
:1027dc000080fa00000006000000fa00022cef0056
:1027ec00f03f200020608800062cef000a2cef0040
:1027fc001a2cef001e2cef00001020000061880046
:10280c000010200000628800001020000063880087
:10281c0010702e00e3c1200011322400d2bc2a001b
:10282c0082097800810978001061880010702e00f0
:10283c00e3c1200011322400d2bc2a0082097800a6
:10284c00810978001062880010702e00e3c120000e
:10285c0011322400d2bc2a00820978008109780048
:10286c0010638800b00f2000e3c120001132240057
:10287c00d2bc2a0082097800810978002061880086
:10288c00b00f2000e3c1200011322400d2bc2a007a
:10289c00820978008109780020628800b00f20003e
:1028ac00e3c1200011322400d2bc2a008209780036
:1028bc008109780020638800262cef00462cef005d
:1028cc00662cef00282cef00482cef00682cef0052
:1028dc002a2cef004a2cef006a2cef002c2cef0076
:1028ec004c2cef006c2cef00322cef00522cef0034
:1028fc00722cef00342cef00542cef00742cef00f2
:10290c00382cef00582cef00782cef003a2cef000d
:10291c005a2cef007a2cef003c2cef005c2cef00d3
:10292c007c2cef003e2cef005e2cef007e2cef0099
:10293c0000002800006088000080fa0000000600fb
:10294c000000fa00042eef00182eef00c00020004b
:10295c0000708800e03f2000a07088000c2eef0073
:10296c00202eef000a2eef001e2eef00062eef0099
:10297c001a2eef004001200070708800200020000b
:10298c0010718800113a8000f00b2000008160006b
:10299c006004200071052000237420008049780019
:1029ac0081497800824978008133800000fc2f0037
:1029bc0000806000e000b3008033880040c2b300a8
:1029cc00d4e6b700103a8000000178000260a00045
:1029dc0060042000710520002374200080497800d9
:1029ec0081497800824978000080fa0000000600d6
:1029fc000000fa0000002300203a88004827ef006e
:102a0c004e27ef0090042000303a88004420a900a3
:102a1c0044c0a90044e0a9004480a9001200200091
:102a2c0080072000a1092000337420008049780021
:102a3c00814978008249780012002000600420004f
:102a4c0071052000237420008049780081497800aa
:102a5c008249780000000000103a8000610060009c
:102a6c000000e000fcff3a0000000000113a80007a
:102a7c0000022000008060000000e000fbff32003c
:102a8c000080fa00000006000000fa00000222009c
:102a9c000058880060042000105888007000200046
:102aac00705888000000210020588800062bef0089
:102abc000088a90000022000805888002002200015
:102acc009058880070002000f05888000000210009
:102adc00a0588800162bef0001c8a900202bef008e
:102aec00222bef002e2bef00000021002059880034
:102afc00262bef000308a900302bef00322bef0040
:102b0c003e2bef0000002100a0598800362bef006f
:102b1c000488a9000080fa00000006000200fa00f8
:102b2c00000f780021028000200f20000080600040
:102b3c001e007000200288000080fa0000000600d1
:102b4c000000fa00c3e8a80000000000000000002c
:102b5c000080fa00000006000000fa0078ff070071
:102b6c00a3ff0700470007001bff0700200007001a
:102b7c00c5ff07002dfe0700a6fe070000f90700a1
:102b8c00efff070000022000e4ff07000080fa00be
:042b9c00000006002f
:020000040000fa
:102ba000061000002000000080000000001000005f
:102bb0000200000082000000ffff0000261000005d
:102bc00006000000800000002c1000000200000041
:102bd00080000000021000000200000080000000e1
:102be000001200000002000080000000041000003d
:0c2bf00002000000800000000000000057
:020000040000fa
:102bfc000000fa00404e2800001988002223ef0044
:102c0c0090002000201988002823ef002e23ef00cd
:102c1c003023ef003223ef002623ef001019800041
:102c2c004200de007f40600002f0b7000080fa0036
:102c3c00000006000000fa0001a8a9000080fa00bc
:102c4c00000006000000fa0069ff07000080fa008f
:102c5c00000006000000fa006afd07000080fa0080
:102c6c00000006000000fa006afd07000080fa0070
:102c7c00000006000000fa00e8fd07000080fa00e2
:102c8c00000006000000fa0081428000f0ff2800de
:102c9c000080600000c0a0008042880011428000cb
:102cac00f0ff28000080600000c0a00010428800e7
:102cbc000080fa0000000600000f78009e007800eb
:102ccc0001808800ffff37000000fa00600021003f
:102cdc0080077800e0012100000188000080fa00e4
:042cec0000000600de
:020000040000fa
:020000040005f5
:04570000ffff0000a7
:020000040000fa
:020000040005f5
:04572000ffff000087
:020000040000fa
:020000040005f5
:04573000f8ff00007e
:020000040000fa
:020000040005f5
:045738007bff0000f3
:020000040000fa
:020000040005f5
:045740009fff0000c7
:020000040000fa
:020000040005f5
:04574800ffff00005f
:020000040000fa
:020000040005f5
:04575000ffff000057
:020000040000fa
:020000040005f5
:04575800000000004d
:020000040000fa
:020000040005f5
:045760000000000045
:020000040000fa
:020000040005f5
:04576800000000003d
:020000040000fa
:020000040005f5
:045770000000000035
:020000040000fa
:020000040005f5
:04577800feff000030
:020000040000fa
:020000040005f5
:04578000ffff000027
:020000040000fa
:020000040005f5
:04578800ffff00001f
:00000001FF
