:020000040000fa
:080000000002040000000000f2
:020000040000fa
:04000800fa020000f8
:020000040000fa
:04000c000c030000e1
:020000040000fa
:0400100024030000c5
:020000040000fa
:0400140002030000e3
:020000040000fa
:0400180014030000cd
:020000040000fa
:04001c001c030000c1
:020000040000fa
:040020002c030000ad
:020000040000fa
:040024009203000043
:020000040000fa
:04002800920300003f
:020000040000fa
:04002c00920300003b
:020000040000fa
:040030009203000037
:020000040000fa
:040034009203000033
:020000040000fa
:04003800920300002f
:020000040000fa
:04003c00920300002b
:020000040000fa
:040040009203000027
:020000040000fa
:040044009203000023
:020000040000fa
:04004800920300001f
:020000040000fa
:04004c00920300001b
:020000040000fa
:040050009203000017
:020000040000fa
:040054009203000013
:020000040000fa
:04005800920300000f
:020000040000fa
:04005c00920300000b
:020000040000fa
:040060009203000007
:020000040000fa
:040064009203000003
:020000040000fa
:0400680092030000ff
:020000040000fa
:04006c0092030000fb
:020000040000fa
:0400700092030000f7
:020000040000fa
:0400740092030000f3
:020000040000fa
:0400780092030000ef
:020000040000fa
:04007c0092030000eb
:020000040000fa
:0400800092030000e7
:020000040000fa
:0400840092030000e3
:020000040000fa
:0400880092030000df
:020000040000fa
:04008c0092030000db
:020000040000fa
:0400900092030000d7
:020000040000fa
:0400940092030000d3
:020000040000fa
:0400980092030000cf
:020000040000fa
:04009c0092030000cb
:020000040000fa
:0400a00092030000c7
:020000040000fa
:0400a40092030000c3
:020000040000fa
:0400a80092030000bf
:020000040000fa
:0400ac0092030000bb
:020000040000fa
:0400b00092030000b7
:020000040000fa
:0400b4003403000011
:020000040000fa
:0400b80092030000af
:020000040000fa
:0400bc0092030000ab
:020000040000fa
:0400c00092030000a7
:020000040000fa
:0400c40092030000a3
:020000040000fa
:0400c800920300009f
:020000040000fa
:0400cc00920300009b
:020000040000fa
:0400d0009203000097
:020000040000fa
:0400d4009203000093
:020000040000fa
:0400d800920300008f
:020000040000fa
:0400dc00920300008b
:020000040000fa
:0400e0009203000087
:020000040000fa
:0400e4009203000083
:020000040000fa
:0400e800920300007f
:020000040000fa
:0400ec00920300007b
:020000040000fa
:0400f0009203000077
:020000040000fa
:0400f4009203000073
:020000040000fa
:0400f800920300006f
:020000040000fa
:0400fc00920300006b
:020000040000fa
:040100009203000066
:020000040000fa
:040104009203000062
:020000040000fa
:04010800920300005e
:020000040000fa
:04010c00920300005a
:020000040000fa
:040110009203000056
:020000040000fa
:040114009203000052
:020000040000fa
:04011800920300004e
:020000040000fa
:04011c00920300004a
:020000040000fa
:040120009203000046
:020000040000fa
:040124009203000042
:020000040000fa
:04012800920300003e
:020000040000fa
:04012c00920300003a
:020000040000fa
:040130009203000036
:020000040000fa
:040134009203000032
:020000040000fa
:04013800920300002e
:020000040000fa
:04013c00920300002a
:020000040000fa
:040140009203000026
:020000040000fa
:040144009203000022
:020000040000fa
:04014800920300001e
:020000040000fa
:04014c00920300001a
:020000040000fa
:040150009203000016
:020000040000fa
:040154009203000012
:020000040000fa
:04015800920300000e
:020000040000fa
:04015c00920300000a
:020000040000fa
:040160009203000006
:020000040000fa
:040164009203000002
:020000040000fa
:0401680092030000fe
:020000040000fa
:04016c0092030000fa
:020000040000fa
:0401700092030000f6
:020000040000fa
:0401740092030000f2
:020000040000fa
:0401780092030000ee
:020000040000fa
:04017c0092030000ea
:020000040000fa
:0401800092030000e6
:020000040000fa
:0401840092030000e2
:020000040000fa
:0401880092030000de
:020000040000fa
:04018c0092030000da
:020000040000fa
:0401900092030000d6
:020000040000fa
:0401940092030000d2
:020000040000fa
:0401980092030000ce
:020000040000fa
:04019c0092030000ca
:020000040000fa
:0401a00092030000c6
:020000040000fa
:0401a40092030000c2
:020000040000fa
:0401a80092030000be
:020000040000fa
:0401ac0092030000ba
:020000040000fa
:0401b00092030000b6
:020000040000fa
:0401b40092030000b2
:020000040000fa
:0401b80092030000ae
:020000040000fa
:0401bc0092030000aa
:020000040000fa
:0401c00092030000a6
:020000040000fa
:0401c40092030000a2
:020000040000fa
:0401c800920300009e
:020000040000fa
:0401cc00920300009a
:020000040000fa
:0401d0009203000096
:020000040000fa
:0401d4009203000092
:020000040000fa
:0401d800920300008e
:020000040000fa
:0401dc00920300008a
:020000040000fa
:0401e0009203000086
:020000040000fa
:0401e4009203000082
:020000040000fa
:0401e800920300007e
:020000040000fa
:0401ec00920300007a
:020000040000fa
:0401f0009203000076
:020000040000fa
:0401f4009203000072
:020000040000fa
:0401f800920300006e
:020000040000fa
:0401fc00920300006a
:020000040000fa
:040200009203000065
:020000040000fa
:040204009203000061
:020000040000fa
:04020800920300005d
:020000040000fa
:04020c009203000059
:020000040000fa
:040210009203000055
:020000040000fa
:040214009203000051
:020000040000fa
:04021800920300004d
:020000040000fa
:04021c009203000049
:020000040000fa
:040220009203000045
:020000040000fa
:040224009203000041
:020000040000fa
:04022800920300003d
:020000040000fa
:04022c009203000039
:020000040000fa
:040230009203000035
:020000040000fa
:040234009203000031
:020000040000fa
:04023800920300002d
:020000040000fa
:04023c009203000029
:020000040000fa
:040240009203000025
:020000040000fa
:040244009203000021
:020000040000fa
:04024800920300001d
:020000040000fa
:04024c009203000019
:020000040000fa
:040250009203000015
:020000040000fa
:040254009203000011
:020000040000fa
:04025800920300000d
:020000040000fa
:04025c009203000009
:020000040000fa
:040260009203000005
:020000040000fa
:040264009203000001
:020000040000fa
:0402680092030000fd
:020000040000fa
:04026c0092030000f9
:020000040000fa
:0402700092030000f5
:020000040000fa
:0402740092030000f1
:020000040000fa
:0402780092030000ed
:020000040000fa
:04027c0092030000e9
:020000040000fa
:0402800092030000e5
:020000040000fa
:0402840092030000e1
:020000040000fa
:0402880092030000dd
:020000040000fa
:04028c0092030000d9
:020000040000fa
:0402900092030000d5
:020000040000fa
:0402940092030000d1
:020000040000fa
:0402980092030000cd
:020000040000fa
:04029c0092030000c9
:020000040000fa
:0402a00092030000c5
:020000040000fa
:0402a40092030000c1
:020000040000fa
:0402a80092030000bd
:020000040000fa
:0402ac0092030000b9
:020000040000fa
:0402b00092030000b5
:020000040000fa
:0402b40092030000b1
:020000040000fa
:0402b80092030000ad
:020000040000fa
:0402bc0092030000a9
:020000040000fa
:0402c00092030000a5
:020000040000fa
:0402c40092030000a1
:020000040000fa
:0402c800920300009d
:020000040000fa
:0402cc009203000099
:020000040000fa
:0402d0009203000095
:020000040000fa
:0402d4009203000091
:020000040000fa
:0402d800920300008d
:020000040000fa
:0402dc009203000089
:020000040000fa
:0402e0009203000085
:020000040000fa
:0402e4009203000081
:020000040000fa
:0402e800920300007d
:020000040000fa
:0402ec009203000079
:020000040000fa
:0402f0009203000075
:020000040000fa
:0402f4009203000071
:020000040000fa
:0402f800920300006d
:020000040000fa
:0402fc009203000069
:020000040000fa
:040300009203000064
:020000040000fa
:040304009203000060
:020000040000fa
:04030800920300005c
:020000040000fa
:04030c009203000058
:020000040000fa
:040310009203000054
:020000040000fa
:100400000f4021000eff24000e01880000000000b4
:10041000000020000000e000020032000001200087
:100420002002880014000700c00007000000e00060
:1004300003003a0060c820000100200002003700dd
:100440000000200001002000810f70000100320038
:100450000f000700000020000000e0000200320052
:100460000000020000000000f80a02000000000086
:100470000040da000000fe00200020000000e00044
:1004800002003200100020009001880000000600e9
:10049000a1028800800478000000eb001f003700f4
:1004a000e284440054a0b4009905ba00e2844400f8
:1004b00054a0b4009906ba00e284440054a0b400e9
:1004c0000006eb00476fde00fd07b200ae018800ba
:1004d000636ce10003003a000ad801000000eb0061
:1004e0000e003700606ce10008003a00004deb00a0
:1004f0000a05e800020039003420ec000af0a000f0
:100500008b05e900f9ff3e00040037006168e10057
:10051000010032000086eb000b00070019c7ba008b
:100520000e04e0001905ba0003003a000a00e000da
:10053000dbff3a0000000600fe07b200ae028800b2
:100540008a047800f5ff37000cd0a300e20f4d00bd
:100550001c00390089027800354dba000a05e80010
:10056000020039003420ec000af0a0008b05e900fd
:100570000f003200254dba000a05e80002003900dc
:100580003420ec000af0a0008b05e90008003200de
:100590000c00e0000600320015cdba000a05e800a4
:1005a000020039003420ec000af0a0008b05e900bd
:1005b0008984e80054a0b4000b00e000e2ff3a0098
:1005c000000006009902ba00055d78008b05e9007d
:1005d000f7ff3200c82ade00055d78008b05e900d0
:1005e000f3ff32000c00e000f1ff320019ddba0029
:1005f000eeff37003600f800c028a9000000eb002d
:10060000f10407003600f800f3040700c048a90011
:1006100010002000ec0407003600f800c068a900b4
:1006200020002000e80407003600f800c088a90078
:1006300030002000e40407003600f800c0a8a9003c
:1006400040002000e00407003600f800c608a900ba
:1006500070002000dc0407003600f800c488a90000
:10066000a0002000d80407003600f800809fbe00dc
:10067000829fbe00849fbe00869fbe000000fa00dd
:100680005120800000022000008060000000e00097
:10069000160032005120800000002200008060001f
:1006a0000000e00002003200710007000ba4a90066
:1006b0005120800000002100008060000000e00068
:1006c000020032006d0007000b84a9005120800059
:1006d00000802000008060000000e0000200320086
:1006e000690007000b64a9000aa4a900502080003b
:1006f000620060000000e000020032000a24a9004d
:10070000640007000468a9000080fa004f03be00df
:100710004f02be004f01be004f00be003600f90080
:10072000004006000040da000000fe000000050066
:020000040000fa
:100730000200fa00000f78001e007800e10f500060
:1007400009003200e10f500005003900e20f5000af
:1007500007003200e30f50000700320008003700a6
:1007600001eba8000600370011eba80004003700d9
:1007700021eba8000200370031eba80000000000c8
:100780000080fa00000006000400fa00000f780064
:10079000110798001e007800e10f50000b00320096
:1007a000e10f500005003900e20f50000b0032004d
:1007b000e30f50000d003200100037009e00900043
:1007c00021588800062bef000c0037009e00900097
:1007d000a1588800162bef00080037009e009000fb
:1007e00021598800262bef00040037009e0090005e
:1007f000a1598800362bef00000000000080fa00ad
:10080000000006000400fa00000f780011079800ad
:100810001e007800e10f50000a003200e10f500086
:1008200005003900e20f500009003200e30f5000cc
:100830000a0032000c0037001e009000605888004b
:10084000090037001e009000e058880006003700bd
:100850001e00900060598800030037001e009000c1
:10086000e0598800000000000080fa000000060047
:100870000000fa000080fa00000006000000fa0004
:100880000080fa00000006000000fa000080fa0074
:10089000000006000000fa000080fa0000000600d8
:1008a0000000fa002468a9000c24ef000120800059
:1008b000f08f2f000080600000a0a00000208800c2
:1008c0000000000001208000000e200080806000f9
:1008d00000082000808f5000faff3a00300020000e
:1008e00080208800801d20009020880010002c00af
:1008f000302088001424ef000024ef000004a8003a
:10090000802180007f00600080218800a02180007d
:100910007f006000a0218800c02180007f0060006f
:10092000c021880081218000c0ff2f00008060006e
:1009300080218800a1218000c0ff2f00008060007e
:10094000a0218800c1218000c0ff2f00008060002e
:10095000c02188003224ef003624ef003a24ef0053
:100960003064a9003464a9003864a9000004a90017
:1009700030e4a80031e4a90032e4a90033e4a9007e
:1009800034e4a90035e4a90036e4a90037e4a9005d
:1009900081218000c0ff2f0000806000802188003e
:1009a00081218000f0cf2f0000806000802188002e
:1009b00091218000c0ff2f000080600090218800fe
:1009c00091218000f0cf2f000080600090218800ee
:1009d000a1218000c0ff2f0000806000a0218800be
:1009e000a1218000f0cf2f0000806000a0218800ae
:1009f000b1218000c0ff2f0000806000b02188007e
:100a0000b1218000f0cf2f0000806000b02188006d
:100a10002024ef002224ef002824ef002a24ef00f6
:100a20000a24a90001208000f08f2f0000806000c0
:100a3000002088000000000001208000000e20003f
:100a4000008060000000e000fbff3a002468a8007e
:100a50000c24a8000ca4a8000080fa0000000600e6
:100a60000000fa00214420000000eb0065ff0700b1
:100a700000202100800078000000eb0042ff07000a
:100a80000000eb002aff07000080fa0000000600cb
:100a90000000fa00014420001000200059ff070068
:100aa00000202100800078001000200036ff0700a1
:100ab000100020001eff07000080fa000000060062
:100ac0000a00fa0030079800410798000043200010
:100ad000000f78000040eb00404798000000eb005a
:100ae00010079800260037001e007800904078001c
:100af00000c8b30000c060000004e0001c00320029
:100b00001e00780010407800684060000004e0009b
:100b100017003a00012021001e0090004400dd0073
:100b200000804000ce009000a30107003e0090002e
:100b300000407800e34060001e007800e3c06000e1
:100b400090417800c2cfb30002c1610081407100c2
:100b5000014878001e007800904078000134a00021
:100b60000148780010c0b3004047980007003700e4
:100b70001e0fe8001e0090000000e800100798001b
:100b80001e0090000000e000d7ff32004e409000b1
:100b90000080fa00000006000800fa003007980004
:100ba0000040eb00204798000121800021079800b9
:100bb0002e0090000000e000280032000000eb0052
:100bc000000f78002000370020808000ae009000e9
:100bd0000008de0061006000004078000004e000d2
:100be0000e0032002080800000407800be0090009f
:100bf0006f00070020808000110020000008dd0049
:100c00000080ea0080007800002180000080600001
:100c10000021880010c0b300204798002080800089
:100c20000000e8002080880020808000ef0f500046
:100c3000010036000430ef002e4090000004e00078
:100c400005003a001e0fe8001e007800ef0f50006c
:100c5000ddff360001003700000000002e4090004c
:100c60000080fa00000006000000fa00502080001a
:100c70004d00de00614060000080fb0000f0a70036
:100c80000000ea000000ea004f00de0000407800ab
:100c90000080fa00000006000000fa0050208000ea
:100ca0004b00de00614060000080fb0000f0a70008
:100cb0000000ea000000ea004f00de00004078007b
:100cc0000080fa00000006000000fa0050208000ba
:100cd0004c00de00614060000080fb0000f0a700d7
:100ce0000000ea000000ea004f00de00004078004b
:100cf0000080fa00000006000600fa000000eb0089
:100d0000000f780001218000210798002e0090003c
:100d10000000e000110032000000eb001007980016
:100d20000b0037001e009000ae0090000008de00af
:100d300061006000004078000004e0000100320023
:100d40001e0fe8001e0090000000e8001007980049
:100d50001e009000ef0f5000f2ff36001e007800da
:100d6000004078000080fa00000006000000fa0051
:100d70000ac4a9000cc4a80001208000f08f2f0035
:100d8000008060000080a0000020880000000000bb
:100d900001208000000e2000808060000002200002
:100da000808f5000faff3a000080fa000000060031
:100db0000c00fa00004f9800510798000000eb006b
:100dc000100798000000eb00000f78006000b800ea
:100dd00020079800310798000e4890000080fb0023
:100de000c400dd00002021000080400010007800d9
:100df00061006000100798001e0090000000e000f5
:100e000017003a000e4890000080fb00c400dd008f
:100e1000002021000080400090007800c0ff2100e9
:100e2000008060004200de008000eb005e01900068
:100e30000089be005e00900041c0b30041409800b0
:100e40000e4890000080fb00c400dd00002021005f
:100e50000080400010007800620f60006b003700d7
:100e60000e4890000080fb00c400dd00002021003f
:100e700000804000100078006101b800c0ff210030
:100e80000100200002027800030178008001780050
:100e90000100780003026200000061008000eb00a6
:100ea000c000dd00000020000001be006120b8008d
:100eb00000017100818171002207980033079800ba
:100ec0002e009000be009000c000dd000000200059
:100ed0005e0190000089be005e0090001002780064
:100ee000900290000e4890000080fb004400dd005e
:100ef0008080e80000202100008040001000780081
:100f00006101b800f0ff200001002000020378001a
:100f1000030178008001780001007800030363007a
:100f2000000061008000eb00c000dd000000200038
:100f30000001be006130b8000001710081817100c4
:100f40004618dd00ca10de00810070004610dd008a
:100f500004004000858048005e0190000089be00ca
:100f60005e00900010027800900290000e48900001
:100f70000080fb004400dd00e40040000020210070
:100f800000804000100078004a00de006101b800d7
:100f9000f0ff2f0001002000020378000301780019
:100fa0008001780001007800030363000000610005
:100fb0008000eb00c000dd00000020000001be004a
:100fc0006130b800000171008181710004004100ae
:100fd000858049005e0190000089be005e0090009f
:100fe00031c0b300414098000e4890000080fb00e3
:100ff0004400dd00e40040000020210000804000ab
:101000009000780000202000008f60001e00780013
:101010000000e000040032005e00900021c0b30038
:1010200051409800620037005e00900011c0b3008c
:10103000514098000e4890000080fb004400dd0005
:10104000e6004000002021000080400010007800f1
:10105000804078005e009000714098000e4890003b
:101060000080fb004400dd00e6004000002021007d
:1010700000804000100078004800de0080407800ca
:101080005e009000014898000e4890000080fb0030
:101090004400dd00e8004000002021000080400006
:1010a00010007800804078005e00900011489800a1
:1010b0000e4890000080fb004400dd00e800400086
:1010c0000020210000804000100078004800de0071
:1010d000804078005e009000214898000e48900003
:1010e0000080fb004400dd00ea00400000202100f9
:1010f0000080400010007800804078005e00900082
:10110000314898000e4890000080fb004400dd004c
:10111000ea0040000020210000804000100078001c
:101120004800de00804078005e0090004148980052
:101130000e4890000080fb004400dd00ec00400001
:1011400000202100008040001000780080407800de
:101150005e009000514898000e4890000080fb000f
:101160004400dd00ec004000002021000080400031
:10117000100078004800de00804078005e0090009b
:10118000614898000e4890000080fb004400dd009c
:10119000e4004000002021000080400010007800a2
:1011a00000407800ef4060005e00900061409800d1
:1011b0000080fa00000006000400fa00000f78002a
:1011c000110798001e00900040409000e44f50002e
:1011d00014003a001e00900090009000100078006b
:1011e00080007800f07f200000806000c200dd00f9
:1011f0001e007800010878001e80e8008000eb00e7
:10120000010878009e007800648040009e009000f5
:10121000e14090008180fb00ef80600001087800d1
:10122000240037001e00900090009000100078000d
:101230004008de0080007800c0ff210000806000d0
:10124000800078000100a0001e00780001087800ee
:101250001e81e8001e0090009000900010007800b1
:10126000ca09dd004600de0000807100c608de000d
:1012700080007800f0ff2000008060000009780006
:101280009e007800648140001e0090006040900045
:101290000080fb00ef0160001e00900090009000b5
:1012a00010007800000078004a00dd000080410056
:1012b000000978009e017800668041009e00900041
:1012c000814890008180fb004809dd009e0090006d
:1012d000f14090008180fb0081004100010878000e
:1012e0009e007800688040009e009000a148900019
:1012f0008180fb004809dd009e009000914890002d
:101300008180fb0081004100010878009e01780087
:101310006a8041009e009000c14890008180fb00df
:101320004809dd009e009000b14890008180fb00dc
:1013300081004100010878009e0078006c80400028
:101340009e009000e14890008180fb004809dd008c
:101350009e009000d14890008180fb0081004100f8
:10136000010878000080fa00000006000000fa0082
:10137000003a80000080fa00000006000200fa0037
:10138000faff0700000f78001e0078002400070015
:101390000004e00002003200000028007100070095
:1013a0001e0078002a0007000004e000020032005e
:1013b000000024006b0007001e00780032000700c8
:1013c0000004e00002003200002020006500070059
:1013d0001e0078003a0007000004e000020032001e
:1013e000000820005f0007001e0078004200070090
:1013f0000004e00002003200000420005900070051
:101400001e0078004a0007000004e00002003200dd
:1014100000012000530007000080fa0000000600d1
:101420000400fa00100798000040eb00004f78001d
:101430001e0090000000e00002003d0010c0b3005c
:10144000004f78001e4078000080fa00000006007f
:101450000400fa00100798000040eb00004f7800ed
:101460009e00900000002400008060000000e0006a
:101470000200320010c0b300004f78001e40780018
:101480000080fa00000006000400fa00100798002f
:101490000040eb00004f78009e00900000202000ec
:1014a000008060000000e0000200320010c0b300c5
:1014b000004f78001e4078000080fa00000006000f
:1014c0000400fa00100798000040eb00004f78007d
:1014d0009e00900000082000008060000000e000f6
:1014e0000200320010c0b300004f78001e407800a8
:1014f0000080fa00000006000400fa0010079800bf
:101500000040eb00004f78009e0090000004200097
:10151000008060000000e0000200320010c0b30054
:10152000004f78001e4078000080fa00000006009e
:101530000400fa00100798000040eb00004f78000c
:101540001e009000700060000000e0000200320009
:1015500010c0b300004f78001e4078000080fa00f1
:10156000000006000200fa00000f78009e80ea00ea
:10157000003a800000806000003a88000080fa0095
:10158000000006000000fa004027ef000080fa008b
:10159000000006000000fa002023a8000080fa00e6
:1015a000000006000000fa00001880000080fa0029
:1015b000000006000200fa00000f78001e0078000c
:1015c00000407800f043b2008080fb00f003200070
:1015d000008060004219800001fc2f008100610042
:1015e00001007000401988000080fa000000060029
:1015f0001400fa00a4000700800020000100200071
:10160000200798003107980040c0b300004f9800b1
:1016100010c0b300104f980010c0b300204f9800c6
:101620000ffd070090012000e2ff0700d9ff07002f
:1016300090af2800a1002000d5000700d9ff0700c7
:10164000000f78001e0078004400de00204798005c
:10165000d0ff0700ae409000314f98006400470073
:10166000800078003000200015fd0700f0ff3700f3
:101670000000fa00042eef00182eef00f00020000a
:10168000007088000080eb00a07088000c2eef0036
:10169000202eef000a2eef001e2eef00062eef0088
:1016a0001a2eef0070002000707088003038200083
:1016b00010718800113a8000f00b2000008160005a
:1016c0006004200071052000237420008049780008
:1016d00081497800824978008133800000fc2f0026
:1016e00000806000e000b3008033880040c2b30097
:1016f000d4e6b700103a8000000178000260a00034
:1017000060042000710520002374200080497800c7
:1017100081497800824978000080fa0000000600c4
:101720000000fa0000002300203a88004827ef005c
:101730004e27ef0090042000303a88004420a90092
:1017400044c0a90044e0a9004480a9001200200080
:1017500080072000a1092000337420008049780010
:10176000814978008249780012002000600420003e
:101770007105200023742000804978008149780099
:101780008249780000000000103a8000610060008b
:101790000000e000fcff3a0000000000113a800069
:1017a00000022000008060000000e000fbff32002b
:1017b0000080fa00000006000000fa00000222008b
:1017c0000058880060042000105888007000200035
:1017d000705888000000210020588800062bef0078
:1017e0000088a90000022000805888002002200004
:1017f0009058880070002000f058880000002100f8
:10180000a0588800162bef0001c8a900202bef007c
:10181000222bef002e2bef00000021002059880022
:10182000262bef000308a900302bef00322bef002e
:101830003e2bef0000002100a0598800362bef005e
:101840000488a9000080fa00000006000200fa00e7
:10185000000f780021028000200f2000008060002f
:101860001e007000200288000080fa0000000600c0
:101870000000fa00c3e8a80000000000000000001b
:101880000080fa00000006000000fa0078ff070060
:10189000a3ff07005700070007000700c6ff070067
:1018a000fffb0700f2ff070000022000e7ff070030
:1018b0000080fa00000006000000fa00004e280038
:1018c000001988002223ef0030062000201988002c
:1018d0002823ef002e23ef003023ef003223ef0008
:1018e0002623ef00101980004200de007f406000d8
:1018f00002f0b7000080fa00000006000000fa00c5
:0c19000001a8a9000080fa000000060009
:020000040000fa
:10190c000610000020000000800000000010000005
:10191c000200000082000000ffff00000210000027
:10192c000200000080000000001200000002000015
:10193c008000000004100000020000008000000085
:04194c000000000097
:020000040000fa
:101950000000fa0072ff07000080fa000000060095
:101960000000fa0081fe07000080fa000000060077
:101970000000fa0081fe07000080fa000000060067
:101980000000fa00fffe07000080fa0000000600d9
:020000040000fa
:10199000f03fb1000180b10006003500ee03090000
:1019a00000000000403fb1000180b100fbff3d009e
:1019b0001000b000203fb000020035000080090098
:0819c000000000000000060019
:020000040000fa
:1019c800000f78009e00780001808800ffff370034
:1019d8000000fa006000210080077800e001210083
:1019e800000188000080fa00000006000000fa00ec
:1019f80081428000f0ff28000080600000c0a00045
:0c1a0800804288000080fa000000060008
:020000040000fa
:020000040005f5
:04570000ffff0000a7
:020000040000fa
:020000040005f5
:04572000ffff000087
:020000040000fa
:020000040005f5
:04573000f8ff00007e
:020000040000fa
:020000040005f5
:045738007bff0000f3
:020000040000fa
:020000040005f5
:045740009fff0000c7
:020000040000fa
:020000040005f5
:04574800feff000060
:020000040000fa
:020000040005f5
:04575000ffff000057
:020000040000fa
:020000040005f5
:04575800000000004d
:020000040000fa
:020000040005f5
:045760000000000045
:020000040000fa
:020000040005f5
:04576800000000003d
:020000040000fa
:020000040005f5
:045770000000000035
:020000040000fa
:020000040005f5
:04577800feff000030
:020000040000fa
:020000040005f5
:04578000ffff000027
:020000040000fa
:020000040005f5
:04578800ffff00001f
:00000001FF
